:020000040800F2
:10000000F85600203902000809400008793300083A
:10001000E13C0008610B00085147000800000000A7
:100020000000000000000000000000008140000807
:10003000950B00080000000011400008AD400008CA
:10004000530200085302000853020008530200083C
:10005000530200085302000853020008530200082C
:10006000530200085302000853020008530200081C
:1000700053020008650B000853020008710B0008CA
:1000800053020008530200085302000853020008FC
:1000900053020008530200085302000853020008EC
:1000A00053020008530200085302000853020008DC
:1000B00053020008530200085302000853020008CC
:1000C00053020008530200085302000853020008BC
:1000D00053020008214700082D470008394700084F
:1000E000530200085302000853020008530200089C
:1000F000530200085302000853020008530200088C
:10010000530200085302000853020008530200087B
:10011000E5420008530200088941000895410008A3
:1001200053020008530200087D0B00085302000828
:10013000530200085302000853020008530200084B
:10014000530200085302000853020008530200083B
:100150005302000853020008890B000845470008B5
:10016000530200085302000853020008530200081B
:100170005302000853020008530200080000000068
:10018000530200085302000800F002F800F045F89E
:100190000AA090E8000C82448344AAF10107DA45E2
:1001A00001D100F03AF8AFF2090EBAE80F0013F0EF
:1001B000010F18BFFB1A43F0010318472467000022
:1001C00044670000103A24BF78C878C1FAD85207B3
:1001D00024BF30C830C144BF04680C6070470000C1
:1001E0000023002400250026103A28BF78C1FBD840
:1001F000520728BF30C148BF0B6070471FB506F0DB
:1002000003FB00F063FC04000020002106F0E6FA86
:10021000401C60601FBD10B510BD00F01BFC1146F6
:10022000FFF7ECFF04F096FA00F042FC03B4FFF78E
:10023000F2FF03BC00F04EFC094880470948004724
:10024000FEE7FEE7FEE7FEE7FEE7FEE7FEE7FEE786
:10025000FEE7FEE704480549054A064B70470000E3
:100260007541000889010008F8500020F856002068
:10027000F8520020F852002053EA020C00F0698086
:100280002DE9F04B4FF00006002B1FBFB3FA83F5AA
:1002900003FA05F424FA05F65E4012BF1643B2FADB
:1002A00082F502FA05F4C5F120051EBF22FA05FC0D
:1002B00044EA0C04203556EA044C4FEA144418BFB3
:1002C000641C4FF000084FF00009904271EB030CE2
:1002D00039D3002919BFB1FA81F701FA07F6B0FA4C
:1002E00080F700FA07F6C7F120071EBF20FA07FCC7
:1002F00046EA0C062037B6FBF4FCA7EB0507103FD7
:1003000007F01F0BCBF120062CFA06F60CFA0BFBBC
:1003100044BFB3460026202FA4BF5E464FF0000B1B
:100320005BEA060C08BF4FF0010B19EB0B0948EB19
:100330000608ABFB027C06FB02CC0BFB03CCC01B0C
:1003400071EB0C01C1E70B46024641464846BDE849
:10035000F08B13B5084318BF4FF0FF300146AFF3E1
:100360000080BDE81C4070470FB400B58DB010A9E7
:10037000099000910B904FF0FF300A9000200C90F4
:10038000064878440690064878446A4607900F99D4
:1003900009A800F039F90DB05DF814FBA3020000C4
:1003A000BB0200002DE9FF5F1D464FF0FF3B914669
:1003B0004FF000085F46D5E90146A96901987F1C06
:1003C0008847296A824688470028F6D1BAF1FF3F5C
:1003D0000CD0002E24F4C06419DD600614D5BAF1E7
:1003E0002B0F09D0BAF12D0F0ED103E0584604B0FF
:1003F000BDE8F09F44F48064A96901987F1C884798
:10040000761E8246002E02DDBAF1300F03D0B9F11C
:10041000000F26D032E0A969761E01987F1C44F4B3
:1004200000748847002E824605DDBAF1780F06D0A9
:10043000BAF1580F03D0B9F1000F10D01EE0B9F196
:10044000000F02D0B9F1100F18D1A969761E0198DA
:100450007F1C24F4007488478246102002E00820A4
:1004600000E00A20814609E0A96908FB0908761E18
:1004700001987F1C44F4007488478246002E05DDF5
:100480004946504600F0ABF80028EDDAE9690198DA
:100490008847A00502D46FF00100A8E7E00725D146
:1004A000600613D5600502D5C8F1000000E04046A3
:1004B00029680A1D2A600968220501D5087015E01F
:1004C000220701D5088011E008600FE02868011DAF
:1004D00029600068210502D580F8008006E0210728
:1004E00002D5A0F8008001E0C0F8008038467EE721
:1004F000032A40F2308010F0030C00F0158011F850
:10050000013BBCF1020F624498BF11F801CB00F827
:10051000013B38BF11F8013BA2F1040298BF00F87B
:1005200001CB38BF00F8013B11F0030300F09C80C1
:10053000083AC0F0088051F8043B083A51F804CB5F
:10054000A0E80810F5E7121D5CBF51F8043B40F825
:10055000043BAFF30080D20724BF11F8013B11F830
:1005600001CB48BF11F8012B24BF00F8013B00F874
:1005700001CB48BF00F8012B704702F0FF0343EAAC
:10058000032242EA024200F002B84FF0000200B536
:10059000134694469646203922BFA0E80C50A0E8A6
:1005A0000C50B1F12001BFF4F7AF090728BFA0E854
:1005B0000C5048BF0CC05DF804EB890028BF40F820
:1005C000042B08BF704748BF20F8022B11F0804F62
:1005D00018BF00F8012B70477047704770473A28E2
:1005E00000D2303820F02002412A01D3A2F1370096
:1005F000884201D34FF0FF30704700000268114479
:100600001378016018467047D160054979445161FB
:1006100004497944116200211161114600F060B86B
:10062000EDFFFFFFB7000000426842B1016811F81A
:10063000013B23B1521EC0E9001218467047012148
:10064000C160881E704742685AB1C368016843B9E7
:1006500083688B4205D0491E521CC0E9001200205D
:1006600070474FF0FF30704710B5203AC0F00B8054
:10067000B1E81850A0E81850B1E81850A0E8185098
:10068000203ABFF4F5AF5FEA027C24BFB1E818500E
:10069000A0E8185044BF18C918C0BDE810405FEA70
:1006A000827C24BF51F8043B40F8043B08BF7047EC
:1006B000D20728BF31F8023B48BF11F8012B28BFF1
:1006C00020F8023B48BF00F8012B704710B50446E4
:1006D00000F0E6F90068005D00F0010010BD0000C8
:1006E0002DE9F34F4FF0000A0C4656468DB001201D
:1006F0000C9001F10C000B9062690B98012190475E
:10070000051E2DD0252D2CD0216A8847C0B16269E5
:100710000B9801219047216A88470028F7D1626928
:10072000411E0B98904700E0761CA1690D98884700
:10073000216A88470028F7D1E1690D988847DBE7EF
:10074000A1690D988847A842074601D1761CD3E7D6
:10075000E1690D9888477F1C02D1BAF1000F6FD074
:100760006BE162690B9800273D46394690472A287D
:1007700004D162690B98012190470125DFF8D082EE
:1007800062690B9801219047A0F130010A290AD231
:100790004745E5DC07EB870100EB4107303FDFD43D
:1007A00045F01005ECE7E90601D46FF000476C282E
:1007B0000AD04C2814D0682815D06A280DD0742887
:1007C0001CD07A281AD01DE062690B98012190474D
:1007D0006C2802D045F0040514E045F002050DE058
:1007E00045F020050AE062690B98012190476828CE
:1007F00002D045F0080505E045F4006562690B98F4
:1008000001219047C4E9015765283DD019DC5828DB
:100810007AD00CDC452837D004DC252826D04128A6
:100820009ED131E046282FD0472899D12CE05B2873
:1008300077D0612828D063287CD0642823D15AE05F
:10084000F6E06F2848D008DC66281DD067281BD04A
:10085000692821D06E2816D127E0702845D073284A
:1008600068D0752847D078280DD14DE0A1690D9842
:100870008847252805463FF469AFE1690D98884708
:100880006D1C3FF46AAFD8E00D9923466A466FF0BD
:100890000100AFF30080C5E045F0400023464FF073
:1008A00000026060A80736D43EE0E8077FF447AF57
:1008B0002068011D21600068290501D506701BE72D
:1008C000290701D5068017E7A90703D5F117C0E965
:1008D000006111E706600FE745F0400023464FF046
:1008E00008026060A80716D41EE040F60E0125EA53
:1008F0000100606016E045F0400023464FF00A0218
:100900006060A80707D40FE045F040006060A807CA
:1009100008D5234610220D996FF00100AFF3008037
:1009200080E007E0102223460D996FF00100FFF7E9
:1009300039FD77E04FF0000963284F46C8464B4623
:10094000CB4602D05B2806D038E0E80601D401206F
:10095000A060012732E06269D4F80CB00B98012145
:1009600090475E2807D14FF0010949466269D4F8E3
:100970000CB00B989047216939B900210A4603ABA6
:1009800043F82120491C0829FADBD8B3216949B36F
:1009900008F1010862690B98012190475D28F4D1A4
:1009A000B9F1000F09D0002003A951F82020D2434B
:1009B00041F82020401C0828F7DB03AB2069002801
:1009C00020794FEA40701ED05B462246CDF8008069
:1009D000CDE901970D9900286FF0010020DAAFF3FF
:1009E00000801FE0C11703AA00EBD1614B1121F079
:1009F0001F0102EB8302411A136801208840034360
:100A00001360C7E719E00D99224600286FF0010036
:100A1000009702DAAFF3008004E0AFF3008001E05A
:100A2000AFF3008000280ADA401C06D10C9820B1F0
:100A30004FF0FF300FB0BDE8F08F5046FAE7E907FE
:100A400001D10AF1010A064400200C9054E600008E
:100A5000CCCCCC0C754600F035F8AE4605006946A6
:100A6000534620F00700854618B020B5FFF7F2FB8B
:100A7000BDE820404FF000064FF000074FF000089F
:100A80004FF0000BAC46ACE8C009ACE8C009ACE8DC
:100A9000C009ACE8C00921F007018D46704700008D
:100AA00010B500F013F8001D10BD00BF315D00004F
:100AB00010B50446AFF300802046BDE81040FFF7B4
:100AC000B5BB000000487047180000200048704780
:100AD0003800002001491820ABBEFEE726000200C6
:100AE00030B44FF0013C50F8042B51F8043BCCFAE1
:100AF00052F4D51A20D1FCB950F8042B51F8043B1C
:100B0000CCFA52F4D51A17D1B4B950F8042B51F8D5
:100B1000043BCCFA52F4D51A0ED16CB950F8042B20
:100B200051F8043BCCFA52F4D51A05D1002CDAD096
:100B300030BC4FF00000704729BAB1FA81F111F0D2
:100B40001801D1F120008440F2D1CA40CB4012F00C
:100B5000FF0213F0FF0330BCD01A7047704700004B
:100B6000FEE7000040F27020C2F2000000F0AEB8D4
:100B700040F2D020C2F2000000F0A8B840F23030BD
:100B8000C2F2000000F0A2B840F29030C2F20000C1
:100B900000F09CB87047000003F036FE03F034FE0E
:100BA0000A3003F015FEF9E7B0B540F2542CC2F25A
:100BB000000CDDF818E0DDE904548CF80000FD209D
:100BC0008CF80100100A8CF80300280E8CF806003F
:100BD000280C8CF80700280A8CF805308CF80800DF
:100BE0006B2340F2B4708CF802108CF804208CF85F
:100BF00009508CF80A408CF80BE0C2F20000614604
:100C00000D228CF80C30BDE8B04002F02BBB000088
:100C100072B600BFFEE7000070B5866D044600F0B6
:100C20001FFB94F83510022928D105462068216C55
:100C3000026822F016020260426922F080024261DC
:100C400009B9A16C19B1016821F0080101600168BE
:100C500021F00101016000BF20680068C00715D0C5
:100C600000F0FEFA401B0628F6D320206065032022
:100C700084F83500002184F8341070BD8020606550
:100C80000120002184F8341070BD00BFE06D3F21C9
:100C900001FA00F0B060012084F835000020002146
:100CA00084F8341070BD000090F83510022909D185
:100CB000052180F835100068016821F0010101600C
:100CC000002070478021416501207047F0B581B058
:100CD00004460020009040F20800C2F200000268C2
:100CE000D4E9166048F2B51337680821C1F64E33CF
:100CF00081403942A2FB03250CD0226813685B07B0
:100D000008D5136823F004031360B160616D41F0EE
:100D10000101616501218140394208D02268526990
:100D2000120604D5B160616D41F0020161650421D4
:100D30008140394208D022681268920704D5B16018
:100D4000616D41F00401616510218140394217D085
:100D500020680268120713D5B16002680168520367
:100D600008D4C90508D4016821F008010160216C8C
:100D700021B905E008033FD4216C09B1204688471A
:100D8000E16D202000FA01F23A4241D02068036868
:100D9000DB063DD5B26094F835300268052B1BD1D7
:100DA00022F016020260426922F080024261226C47
:100DB0000AB9A26C1AB1026822F0080202603F2050
:100DC0008840B060012084F83500216D00200029A2
:100DD00084F8340052D157E00168520310D4C90599
:100DE00012D4016821F010010160012084F835005F
:100DF000002084F8340007E0A16C0029BED1BFE7D1
:100E0000080301D4616C00E0E16B09B1204688471A
:100E1000606DC8B3606DC0072ED0052084F8350022
:100E20002068A90A026822F001020260009A0132D9
:100E30008A4200921AD80268D20717D0009A01326B
:100E40008A42009212D80268D2070FD0009A01326B
:100E50008A4200920AD80268D20707D0009A01326B
:100E60008A42009202D80268D207DFD1012084F8BA
:100E70003500002084F83400E16C29B1204601B02F
:100E8000BDE8F040084700BF01B0F0BD2DE9F041DA
:100E9000044600F0E5F9ECB10546022084F835007F
:100EA0000020216884F83400086820F00100086000
:100EB00021680868C00711D000F0D2F9401B05284E
:100EC000F6D9032520230320636584F83550BDE857
:100ED000F08100BF0120BDE8F08100BF086848F242
:100EE0003F02CFF21002D4E9013500EA020C04F10E
:100EF0000C0898E8C10143EA0C032B431843D4E9DA
:100F0000072E304338431043626A40EA0E00042A39
:100F100040EA08031CD1206BD4E90A2E40EA0E00F7
:100F2000184308604869BEF1000F20F0030040EA52
:100F3000020040F0040C11D0B8F5005F36D0B8F1D3
:100F4000000F45D1022A46D0012A3BD032B942E0F7
:100F50000B60486920F0070040EA020C01F0F8003D
:100F60004AF6AB221038CAF6AA22A0FB02231A09BD
:100F700046F68403C0F600039A5C40F2FF335F2814
:100F80004FF03F00C1F814C021EA030100FA02F05B
:100F900088BF0431C4E916128860002301250020AF
:100FA000636584F83550BDE8F08100BF032AD5D8C9
:100FB000012540230120DFE802F0030E030500BFF6
:100FC00082E700BFAEF1C070B0FA80F0400904E0E3
:100FD000032A04D3C2D1CEF300600028BED001257D
:100FE00040230120636584F83550BDE8F08100009E
:100FF00070B590F834C0BCF1010F46D04FF0010C31
:1010000080F834C0D0F858E090F835C0BCF1010F3A
:1010100038D14FF0020C80F835C04FF0000CC0F80A
:1010200054C0D0F800C08468056CC06DDCF8006066
:10103000402C26F48026CCF80060CCF804300B4617
:1010400004BF13460A463F2101FA00F0CCF80830ED
:10105000CCF80C20CEF80800DCF8000040F01600B8
:10106000CCF800002DB1DCF8000040F00800CCF80E
:101070000000DCF8000040F00100CCF80000002087
:1010800070BD00BF002180F83410022070BD000048
:101090002DE9F04F82B000F13E4241F6004502F1E9
:1010A000FF77C4F20205082243F6004E4FEAB72646
:1010B000A84208BF0722C4F2010E072E38BF4FEA2C
:1010C000B7220125002600274FF00008009208E013
:1010D00008F101080437B8F1100F06F1020600F01C
:1010E000A7800C6805FA08F914EA090FF0D0D1F8C6
:1010F00004B003220BF0030CACF10104B240012C4C
:101100006FEA020A10D88268CC6802EA0A02B44088
:10111000224382604268CBF3001422EA090204FAF7
:1011200008F42243426005E0BCF1030F02D14FF006
:10113000030C20E0C2688C6802EA0A02B440224331
:10114000BCF1020FC26016D16FF0030202EA58022E
:101150000244D2F820C007F01C050F230C69AB40F5
:101160002CEA030304FA05F52B431362D1F804B00B
:1011700001250BF0030C02680CFA06F302EA0A02DE
:101180001A431BF4403F0260A2D0002243F64403FE
:101190000192C4F202031A684FF6084C42F48042EE
:1011A0001A601A68CFF6FF7C02F480420192019A1D
:1011B00028F00302724452F80C3007F00C050F249B
:1011C000AC40A343009C04FA05F52B4342F80C30D5
:1011D000DEF808204B6842EA090543F60C4CDC02B5
:1011E00058BF22EA0905CEF80850C4F2010CDCF819
:1011F00000209C0242EA090558BF22EA0905CCF802
:101200000050DEF804209C0342EA090558BF22EA98
:101210000905CEF80450DEF80020DB0342EA090598
:1012200058BF22EA0905CEF80050012550E700BF5B
:1012300002B0BDE8F08F00000069084018BF01202F
:1012400070470000426902EA0103914341EA034109
:1012500081617047002A08BF09048161704700005E
:1012600044F6F810C2F200000068704770B5B8B3D9
:10127000044690F83D0028B9002084F83C00204640
:1012800000F0B0F8242084F83D002068016821F0C7
:1012900001010160016841F400410160016821F42D
:1012A0000041016000F0D6FA48F28041C0F21E0110
:1012B00040F60013D4F804E088424FF00001C0F279
:1012C0003D0348F2A16C4FF0000238BF0121984263
:1012D000C0F2010C38BF0122E64538BF0A460AB108
:1012E000012070BD4DF68361C4F21B31A0FB0112D9
:1012F0002168950C4B684FF4967623F03F0343EA40
:101300009243754344F6D3564B60C1F262060B6AB2
:10131000A5FB0656B50923F03F03E64538BF950CFB
:101320006A1C1A430A62CA6948F2A0664CF6FF7347
:10133000C0F20106B64522EA03020BD801384FEA93
:101340004E03B0FBF3F001306FF31F30042898BF59
:1013500004201EE0A368013863B119230EFB03F3D8
:10136000B0FBF3F001306FF31F3078B100F580402F
:1013700008E000BF0EEB4E03B0FBF3F001306FF35B
:101380001F3028B100F5004003E000BF012000E05D
:1013900001201043C8610868D4E9072320F0C00089
:1013A000104318430860886848F2FF3204F10C06C5
:1013B00090434CCE18431043A5698860C86820F05C
:1013C000FF0030432843C860086840F0010008600F
:1013D00000202021206484F83D10206384F83E0022
:1013E00070BD0000B0B586B0006845F60001C4F2DB
:1013F000000100248842CDE90444CDE9024401946F
:1014000032D045F20041C4F20001884255D1002497
:1014100043F630050094C4F20205286801A940F0A3
:1014200002002860286800F00200009000984FF445
:10143000C07001901220CDE9020403200490042022
:10144000059040F20040C4F20200FFF721FE009434
:10145000286940F400102861286900F40010009009
:10146000009806B0B0BD00BF43F630050094C4F24A
:101470000205286801A940F002002860286800F0F1
:101480000200009000984FF4406001901220CDE9D6
:101490000204032004900420059040F20040C4F2AE
:1014A0000200FFF7F5FD0094286940F480002861F0
:1014B000286900F480000090009806B0B0BD0000DC
:1014C00040F2000044F6F811C2F20000C2F200013E
:1014D00000780A68104408607047000080B543F641
:1014E0000040C4F20200016841F40071016001682B
:1014F00041F480610160016841F480710160032062
:1015000000F0C8F80F2000F005F800F061F80020A6
:1015100080BD000070B586B0002543F640010195FE
:10152000C4F202010A68044642F020020A60096817
:1015300001A801F0200101910199694600F06AF9C2
:10154000049E002E18BF012600F084F94DF6836139
:10155000B040C4F21B31A0FB01014FF0FF3000EBA3
:10156000914140F24C6041F20042C2F20000C4F2EC
:10157000000240F2E733C0E90021C0E902530561EF
:10158000856100F0DFFB054610B1284606B070BD4E
:1015900040F24C60C2F2000000F056FC0546002804
:1015A000F3D1372000F036F80F2C0DD83720214624
:1015B0000022002500F042F840F20400C2F20000D0
:1015C0000460284606B070BD0125284606B070BDEF
:1015D00082B0002043F640010190C4F202014A6843
:1015E00042F480424A604A6802F480420192019AC1
:1015F00000900868002240F08050086008680F21C1
:1016000000F08050009000986FF0010002B000F0F0
:1016100015B80000002848BF7047C1B200F01F0095
:10162000012202FA00F04EF20012CEF2000242EA6B
:10163000D10121F0030108607047000010B54EF69B
:101640000C5CCEF2000CDCF80030C3F3022E8EF0FE
:101650000704042C28BF0424BEF103034FF0FF3E0F
:101660000EFA04F438BF0023A14399400EFA03F3A5
:101670009A43114300F00F0200F160430901043A5C
:1016800003F564436244002848BF02F10C0319705B
:1016900010BD00004EF60C51CEF200010A684FF664
:1016A000FF031A4060F30A2242F0806040F0FD70B0
:1016B000086070472DE9F041002800F08B8043F668
:1016C0000808C4F202080446D8F8F8030D4600F0F2
:1016D0000700884207D288F8F853D8F8F80300F0DA
:1016E0000700A84276D12068810717D5410705D5A4
:1016F000D8F8001041F4E051C8F80010010705D5F2
:10170000D8F8001041F46041C8F80010D8F8001073
:10171000A26821F0F0011143C8F80010C0073FD1C2
:10172000D8F8F80300F00700A84207D988F8F85362
:10173000D8F8F80300F00700A8424BD12068410711
:1017400007D5D8F80010E26821F4E0511143C8F839
:101750000010000708D5D8F80000216920F4604087
:1017600040EAC100C8F8000000F09CF8D8F800106A
:1017700046F66C02C1F30311C0F60002515C40F260
:10178000080220FA01F140F20400C2F200000068F1
:10179000C2F200021160FFF7BDFE0020BDE8F0813B
:1017A0006068811E022907D258F8081C89015CBFB5
:1017B0000120BDE8F08111E0012807D158F8081C8C
:1017C00089035CBF0120BDE8F08107E058F8081CE0
:1017D000890703D40120BDE8F08100BFD8F80010CC
:1017E00021F003010843C8F80000FFF739FD064661
:1017F00041F28837D8F80000616800F00C00B0EBC7
:10180000810F8DD0FFF72CFD801BB842F2D9032049
:10181000BDE8F0810F22026043F60802C4F2020222
:10182000136803F003034360136803F0F00383605D
:10183000136803F4E053C360D2F800C04FF4E053E0
:1018400003EADC030361D2F8F80300F00700086044
:101850007047000040F2080043F60801C2F20000A1
:10186000C4F202010068096846F67C02C1F38221D5
:10187000C0F60002515CC8407047000040F208000A
:1018800043F60801C2F20000C4F2020100680968D0
:1018900046F67C02C1F34231C0F60002515CC840FA
:1018A0007047000010B543F60404C4F202046068F7
:1018B00000F00C0142F200400829C0F2F40007D009
:1018C000042918BF10BD41F20020C0F27A0010BDFB
:1018D000216801F03F02216823684902C3F388119F
:1018E00006D4A1FB00010023FEF7C6FC07E000BF01
:1018F00041F20020C0F27A004843B0FBF2F02168C8
:101900000222C1F3014102EB4101B0FBF1F010BD35
:101910002DE9F04182B0002868D00446007843F6F3
:101920000006C007C4F202060BD0B06800F00C003D
:10193000042840F09F803068800302D5606800284A
:1019400054D0207880071AD5B06810F00C0F09D059
:10195000B06800F00C00082840F0A68070684002D3
:1019600000F1A2803068800702D5E06801283DD1EF
:101970003068216920F0F80040EAC100306020782A
:10198000000737D4207840074CD4A56955B3B06818
:1019900000F00C00082840F0BB80012D26D07068B4
:1019A000E16900F480028A4220D1216A00F03F02FE
:1019B0008A421BD147F6C071626A0140B1EB821FB7
:1019C00014D1A16A4FF6FF73C903994300F4403262
:1019D000A1F580318A4209D1E16A00F07060B0EB74
:1019E000016F03D1002002B0BDE8F081012002B0F8
:1019F000BDE8F0816069002840F20000C4F2472091
:101A000076D00121C0F8801EFFF72AFC054600BFF2
:101A1000706F8007B6D4FFF723FC401B0228F7D96C
:101A2000DDE000BF306C10F080580AD1002001903A
:101A3000306C40F080503064306C00F08050019089
:101A4000019847F20007C4F200073868C00541D486
:101A5000386840F480703860FFF702FC054600BF2C
:101A60003868C00536D4FFF7FBFB401B0228F7D9C6
:101A7000B5E000BFB06800F00C00082803D1706822
:101A800040023FF558AF6068B0F5803F07D0B0F531
:101A9000A02F40F08D80306840F4802030603068A6
:101AA00040F4803030608DE0E068002852D00020A3
:101AB000C4F2472001210160FFF7D2FB054600BFB9
:101AC000306880073FF554AFFFF7CAFB401B022880
:101AD000F6D984E0A068012805D005284ED1306FE2
:101AE00040F004003067306F40F0010030674FE095
:101AF0000021C0F8801EFFF7B3FB0546706F80071A
:101B00007FF540AFFFF7ACFB401B0228F6D966E03B
:101B10000027C4F2472700203866FFF7A1FB022DFB
:101B200005460BD1306880015ED5FFF799FB401B5D
:101B300002284FF00300F5D955E700BF3068800157
:101B40007FF550AFFFF78CFB401B02284FF00300DE
:101B5000F4D948E70020C4F2472000210160FFF7D4
:101B60007FFB0546306880077FF509AFFFF778FBFC
:101B7000401B02284FF00300F4D934E7316F0028EE
:101B800021F001013167316F21F0040131674DD03F
:101B9000FFF766FB054641F2883700BF306F8007CC
:101BA00056D4FFF75DFB401BB842F7D917E000BFE2
:101BB0003168002821F480313160316821F48021BE
:101BC00031604FD0FFF74CFB054600BF3068800303
:101BD0003FF5B7AEFFF744FB401B6428F6D903205E
:101BE00002B0BDE8F08100BF04F11C052FCD084311
:101BF00040EA8210D9034FF6FF729143A1F580317C
:101C000040EA05600843706001203866FFF728FB52
:101C1000044600BF306880013FF5E4AEFFF720FBCB
:101C2000001B02284FF00300F4D9DCE6FFF718FB95
:101C3000054641F2883700BF306F800708D5FFF7AF
:101C40000FFB401BB8424FF00300F5D9CBE600BFB5
:101C5000B8F1000F7FF499AE306C20F08050306402
:101C600093E600BFFFF7FCFA054600BF306880032B
:101C70007FF567AEFFF7F4FA401B64284FF00300CE
:101C8000F4D9B0E6704700007047000010B590F836
:101C90003C20012A4FF0020251D080F83D2002681A
:101CA000D2F804E0D2F808C00C682EF07003234389
:101CB00041F2FF74C4F20004A24253600EDC40F211
:101CC000FF73C4F200039A4216DCB2F1804F2BD0AE
:101CD00040F20043C4F2000324E000BF40F2FF33AF
:101CE000C4F201039A4213DC41F60003C4F200037C
:101CF0009A4219D0002313E040F60003C4F2000317
:101D00009A4211D040F60043C4F200030AE000BF3B
:101D100044F20003C4F201039A4205D040F20043AA
:101D2000C4F201039A4204D149682CF0800319439C
:101D300091600121002280F83D1080F83C2010467F
:101D400010BD0000002804BF0120704710B50446F4
:101D500090F83D0028B9002084F83C00204600F0AF
:101D60001FF8022084F83D002068211D02F018FAB7
:101D7000012084F8460084F83E0084F83F0084F88F
:101D8000400084F8410084F8420084F8430084F85D
:101D9000440084F8450084F83D00002010BD000098
:101DA00080B584B0006844F20001C4F201018842A9
:101DB00026D041F60001C4F20001884232D041F23F
:101DC0000001C4F2000188423BD10020039043F699
:101DD0004000C4F202000168002241F010010160DD
:101DE0000068052100F01000039003983620FFF7EB
:101DF00025FC362004B0BDE88040FFF70BBC00BFD7
:101E00000020029043F64000C4F20200416841F411
:101E100080314160406800F480300290029804B044
:101E200080BD00BF0020019043F64000C4F20200D4
:101E3000016841F040010160006800F0400001903D
:101E4000019804B080BD000090F83D1001291CBF2E
:101E500001207047022180F83D10006841F2FF72B6
:101E6000C168C4F20002904241F00101C1600DDC82
:101E700040F2FF71C4F20001884215DCB0F1804FDE
:101E80002AD040F20041C4F2000123E040F2FF31C9
:101E9000C4F20101884213DC41F60001C4F20001E2
:101EA000884219D0002113E040F60001C4F200017D
:101EB000884211D040F60041C4F200010AE000BFA0
:101EC00044F20001C4F20101884205D040F2004111
:101ED000C4F20101884206D1816801F00701062998
:101EE00004BF00207047016841F00101016000203B
:101EF0007047000080B590F83C20012A4FF00202A4
:101F000000F0C28080F83D20D0F800C04FF6777214
:101F1000DCF8083023EA0202CCF808200B684F2BCB
:101F200028DC1F2B44DD202B45D0302B43D0402B09
:101F300040F0AC80D1F804E0C968DCF82030DCF86F
:101F4000202022F00102CCF82020DCF8182022F01A
:101F5000F00242EA011123F00A0242EA0E02CCF832
:101F60001810CCF82020DCF8081041F0470121F0CF
:101F7000300180E06F2B27DDB3F5005F48D0B3F56B
:101F8000805F7AD0702B40F08180D1E901E3C9688D
:101F9000DCF8082043EA0E0322F47F4243EA0121E1
:101FA0001143CCF80810DCF8081041F0770162E02A
:101FB0000BB1102B6AD1DCF8081021F07001194325
:101FC00041F0070157E000BF502B35D0602B5DD1A9
:101FD000D1F804E0C968DCF82030DCF8202022F0D9
:101FE0001002CCF82020DCF8182022F4704242EADB
:101FF000013123F0A00242EA0E12CCF81810CCF8FE
:102000002020DCF8081041F0670121F0100132E0D7
:10201000D1E901E3C968DCF8082043EA0E0322F4A1
:102020007F4243EA01211143CCF80810DCF8081084
:1020300041F480411FE000BFD1F804E0C968DCF83A
:102040002030DCF8202022F00102CCF82020DCF83F
:10205000182022F0F00242EA011123F00A0242EABB
:102060000E02CCF81810CCF82020DCF8081041F053
:10207000570121F02001CCF808100022012180F83E
:102080003D10002180F83C10104680BD0122F5E78C
:10209000002804BF012070472DE9F047044690F85E
:1020A0003D000D4628B9002084F83C00204600F091
:1020B00049F8022084F83D00206844F20702816854
:1020C00091438160211D02F06BF820684FF6FF7884
:1020D00081688269D0F820C0D5E9003ED5E9026A5E
:1020E00043EA0109AB6922EA080246EA03234FF6F4
:1020F000FC46B343D5E9076742EA0A0229691A4355
:1021000042EA062242EA01112CF0AA026B6942EA75
:102110000E0241EA073142EA0312C0F808908161D9
:102120000262012084F8460084F83E0084F83F00F3
:1021300084F8420084F8430084F83D000020BDE8A4
:10214000F087000080B586B0006840F6FF31C4F229
:10215000000188424FF000010591CDE90311CDE95E
:1021600001112FDC40F20041C4F20001884257D037
:1021700040F60001C4F20001884240F09580002042
:1021800043F630010090C4F202010A6942F00402F1
:102190000A610A6902F004020092009A009008683D
:1021A00040F0080008600868022100F00800009074
:1021B00000984FF4405001900020C4F2020000F556
:1021C000406068E040F60041C4F20001884243D01C
:1021D0000021C4F20101884266D1002043F630019B
:1021E0000090C4F202014A6942F001024A614A6960
:1021F00002F001020092009A0090086840F010007E
:1022000008600868012100F01000009000984FF469
:10221000206001900020C4F2020000F580503AE0F6
:10222000002043F630010090C4F202010A6942F036
:1022300002020A610A6902F002020092009A00900A
:10224000086840F001000860086800F00100009094
:102250000098C0201AE000BF002043F63001009033
:10226000C4F202010A6942F008020A610A6902F036
:1022700008020092009A0090086840F0010008608F
:10228000086800F0010000900098032001900020F1
:102290000221C4F20200022202920022059101A949
:1022A000CDE90322FEF7F4FE06B080BD70470000C2
:1022B00070B504460068C5680669B10716D515F003
:1022C000020113D06FF002010161012121778069C1
:1022D000800703D02046FFF7E9FF05E0204600F025
:1022E0008FF8204600F0D0F900202077700719D52C
:1022F00015F0040016D020686FF00401016102217E
:102300002177806910F4407F04D02046FFF7CEFF8C
:1023100006E000BF204600F073F8204600F0B4F954
:1023200000202077300717D515F0080014D020685A
:102330006FF00801016104212177C069800703D093
:102340002046FFF7B3FF05E0204600F059F820468D
:1023500000F09AF900202077F00619D515F010004A
:1023600016D020686FF01001016108212177C06943
:1023700010F4407F04D02046FFF798FF06E000BF2E
:10238000204600F03DF8204600F07EF9002020773E
:10239000F00718BF15F0010002D1300609D412E091
:1023A00020686FF001010161204600F0F9F9300664
:1023B00009D515F0800006D020686FF0800101611A
:1023C0002046FFF75FFC700609D515F0400006D0E7
:1023D00020686FF040010161204600F0EBF9B00683
:1023E00058BF70BD15F0200008D021686FF02002A2
:1023F00020460A61BDE87040FFF746BC70BD000092
:10240000704700002DE9F04390F83C30012B04BFE9
:102410000220BDE8F0834FEAB202032A00F2FC80FA
:10242000DFE802F0023E7EBE036840F200471C6A0D
:102430001A6A24F0020422F001021A621A46D3F842
:1024400004E052F818CF8E6843F48065C4F20107A7
:10245000BD4244EA060405D1CE6824F00C0426F0FF
:10246000040634430E68BD4207D1D1E905572EF466
:10247000407E45EA0E0545EA070E2CF07307374308
:10248000C3F804E09F614F6809695F631C629F693C
:1024900047F008079F619F6927F004079F61B1E03B
:1024A000036840F200481C6A1A6A24F0200422F0F3
:1024B00010021A621A46D3F804C052F818EF8F6857
:1024C00043F48065C4F20108454544EA071407D186
:1024D000CF686FF0400624F0C00406EA07163443C4
:1024E000D1F80090454506D1D1E905562CF4406756
:1024F0002E4347EA860C2EF4E64747EA0927C3F83D
:1025000004C09F614F6809699F631C629F6947F41B
:1025100000679F619F6927F480679F6171E000BF3A
:10252000036840F200481C6A1A6A24F4007422F41A
:1025300080721A621A46D3F804C052F81CEF8F68F2
:1025400043F48065C4F20108454544EA072408D1F4
:10255000CF6840F2FF463F0224F4406427EA0606B3
:102560003443D1F80090454506D1D1E905562CF405
:1025700040572E4347EA061C2EF0730747EA090727
:10258000C3F804C0DF614F680969DF631C62DF695B
:1025900047F00807DF61DF6927F00407DF6131E0FA
:1025A000036840F20045D3F820C01A6A43F48067FC
:1025B00022F480521A621A465C6852F81CEFD1F875
:1025C00000808E68C4F20105AF4204D14D6924F445
:1025D000804444EA85142CF4005747EA06372EF469
:1025E000E64646EA08265C60DE614E6809691E64BC
:1025F0001F62DF6947F40067DF61DF6927F48067E6
:10260000DF6109021368194311600021002280F87C
:102610003C200846BDE8F0830121002280F83C20E0
:102620000846BDE8F0830000002804BF0120704781
:1026300010B5044690F83D0028B9002084F83C000D
:10264000204600F01FF8022084F83D002068211D7C
:1026500001F0A6FD012084F8460084F83E0084F8CD
:102660003F0084F8400084F8410084F8420084F878
:10267000430084F8440084F8450084F83D000020BD
:1026800010BD0000704700007047000041B10829EC
:1026900010D0042914BF00F1410200F13F020BE009
:1026A00090F83E20012A1CBF01207047022280F8CA
:1026B0003E2013E000F140021278012A1CBF0120E5
:1026C00070470222082907D0042914BF80F841204E
:1026D00080F83F2002E000BF80F84020006801F051
:1026E0001F010122036A02FA01F123EA01020262D8
:1026F000026A114341F2FF72C4F200029042016289
:102700000CDC40F2FF71C4F20001884214DCB0F12D
:10271000804F37D040F2004116E000BF40F2FF3159
:10272000C4F20101884215DC41F60001C4F2000147
:10273000884227D0002115E040F60001C4F20001D4
:1027400088421FD040F60041C4F20001884219D0EF
:102750001FE000BF44F20001C4F20101884211D021
:1027600040F20041C4F20101884212D1416C40F2B2
:10277000004340F48062C4F2010341F400419A42F4
:10278000416406D1816801F00701062904BF0020D9
:102790007047016841F001010160002070470000AE
:1027A000006841F20041C4F20001884218BF70473E
:1027B000FEF786BE7047000081B090F84230202BB3
:1027C00008D100294FF0010318BF002A06D118468E
:1027D00001B070470223184601B07047012303631C
:1027E00000234363816222218285C285436480F88D
:1027F0004210026901681AB1CA6842F48072CA6064
:102800004A6942F001024A61CA6842F02002CA6085
:10281000026B012A30D1002200920A6800924968B6
:1028200000910099016851E8031F026841F010010E
:1028300042E80313DBB1016851E8031F026841F06D
:10284000100142E8031393B1016851E8031F0268C5
:1028500041F0100142E803134BB1016851E8031F36
:10286000026841F0100142E80313002BDAD1002383
:10287000184601B0704700BF0123184601B07047E9
:10288000B0B582B040F2FC71C2F2000140F2AC146B
:102890008842C2F2000412D104F1080004F11005CC
:1028A00004F10C0C0090231D0BA128462246CDF804
:1028B00004C0FDF759FD28466421FDF766FE40F28D
:1028C000FC7004F11001C2F20000642202B0BDE805
:1028D000B040FFF771BF00BF78313A25642C7931E1
:1028E0003A25642C78323A25642C79323A256400F2
:1028F00070470000B0B582B0044600680168C36844
:10290000426901F02F05202D03F0200506D12DB1DD
:10291000204602B0BDE8B04001F00ABE5FEA017C8B
:102920001EBF02F0010E03F4907212EB0E0253D19F
:10293000226B012A05D111F0100218BF13F010020A
:1029400036D10A0622D513F080021FD094F8411028
:1029500021293FD1A168B1F5805F03D12169002908
:1029600000F08282216A4A1C226209784160E18C6F
:1029700001390A04E1842DD1C16821F08001C160D0
:10298000C16841F04001C16002B0B0BD490621D527
:1029900013F040011ED0C16821F04001C160202128
:1029A000204684F8411002B0BDE8B04000F0C0BC41
:1029B00000210191016801914168019101994069EB
:1029C000400613D4A08DE18DE28D002A18BF884205
:1029D00040F0CC8102B0B0BDCA0718BF13F48072BA
:1029E00040F0BE804A0700F1C180C6E0E06B01689C
:1029F0004A68A38D91B2002900F0A881994280F025
:102A0000A581E285C069B0F5807F00F09D802068D7
:102A100050E8030F216820F4807041E80302DAB126
:102A2000206850E8030F216820F4807041E8030219
:102A300092B1206850E8030F216820F4807041E8CB
:102A400003024AB1206850E8030F216820F4807027
:102A500041E80302002ADAD1206850E8050F216816
:102A600020F0010041E80502BAB3206850E8050FE4
:102A7000216820F0010041E8050272B3206850E8A7
:102A8000050F216820F0010041E805022AB3206803
:102A900050E8050F216820F0010041E80502002AF6
:102AA000DAD11AE0206850E8050F216820F04000D4
:102AB00041E80502DAB1206850E8050F216820F0EE
:102AC000400041E8050292B1206850E8050F2168F6
:102AD00020F0400041E805024AB1206850E8050FA7
:102AE000216820F0400041E80502002ADAD12020C8
:102AF00084F8420000202063206850E8030F21681A
:102B000020F0100041E80302DAB1206850E8030F1A
:102B1000216820F0100041E8030292B1206850E8DB
:102B2000030F216820F0100041E803024AB1206839
:102B300050E8030F216820F0100041E80302002A4A
:102B4000DAD1E06BFEF768F802206063A08DE18DBA
:102B5000401A81B2204602B0BDE8B040FFF790BEF7
:102B6000626C42F0010262644A0706D5BEF1000FB2
:102B700003D0626C42F0020262648A0706D5BEF19D
:102B8000000F03D0626C42F004026264BCF1000FDB
:102B900009D545EA0E02B2FA82F2520903D1626CFB
:102BA00042F008026264626C002A3FF413AF11F035
:102BB000200118BF002D03D0204601F0B9FC206889
:102BC0004069616C00F0400001F00801401800F01D
:102BD000B58000BF206850E8030F216820F4907092
:102BE00041E80302BAB3206850E8030F216820F4DB
:102BF000907041E8030272B3206850E8030F216827
:102C000020F4907041E803022AB3206850E8030FD3
:102C1000216820F4907041E80302002ADAD11AE01A
:102C2000206850E8050F216820F0010041E8050206
:102C3000DAB1206850E8050F216820F0010041E872
:102C4000050292B1206850E8050F216820F00100CC
:102C500041E805024AB1206850E8050F216820F0DC
:102C6000010041E80502002ADAD1206B012824D1B5
:102C7000206850E8030F216820F0100041E80302AB
:102C8000DAB1206850E8030F216820F0100041E815
:102C9000030292B1206850E8030F216820F0100071
:102CA00041E803024AB1206850E8030F216820F090
:102CB000100041E80302002ADAD1202084F8420003
:102CC0000020206320684069400649D5206850E80C
:102CD000050F216820F0400041E80502DAB12068C4
:102CE00050E8050F216820F0400041E8050292B14C
:102CF000206850E8050F216820F0400041E80502F7
:102D00004AB1206850E8050F216820F0400041E8F2
:102D10000502002ADAD1E06B10B344F2F121C0F6CB
:102D200000010165FDF7C0FF00283FF453AEE06BE2
:102D3000016D02B0BDE8B040084700BF2046FFF774
:102D4000D7FD0020606402B0B0BD00BF8B427FF4AD
:102D500041AEC069B0F5807F7FF43CAE02227CE0DA
:102D6000204602B0BDE8B040FFF7C2BD401A21685E
:102D700051E8031F226821F4907142E80313DBB18C
:102D8000216851E8031F226821F4907142E803137F
:102D900093B1216851E8031F226821F4907142E841
:102DA00003134BB1216851E8031F226821F490718D
:102DB00042E80313002BDAD1216851E8051F22688D
:102DC00021F0010142E80513DBB1216851E8051F3C
:102DD000226821F0010142E8051393B1216851E80E
:102DE000051F226821F0010142E805134BB121685B
:102DF00051E8051F226821F0010142E80513002B6C
:102E0000DAD1202184F8421000212163216851E8A1
:102E1000031F226821F0100142E80313DBB121688F
:102E200051E8031F226821F0100142E8031393B117
:102E3000216851E8031F226821F0100142E80313C2
:102E40004BB1216851E8031F226821F0100142E8CC
:102E50000313002BDAD1022281B22046626302B052
:102E6000BDE8B040FFF70CBD216A31F8022B6FF3CB
:102E70005F22426021627AE5002804BF012070478A
:102E800010B5044690F8410028B9002084F84000AD
:102E9000204600F021F8242084F841002068C16811
:102EA00021F40051C160204601F0C2FB2068016995
:102EB00021F490410161416921F02A014161C16819
:102EC00041F40051C16000202021606484F8411069
:102ED00084F84210606310BD2DE9F04387B00446CA
:102EE000006844F6FF31C4F2000188424FF000014F
:102EF0000691CDE90411CDE902117BDD41F20041DB
:102F0000C4F20101884200F0B18041F20001C4F234
:102F10000101884200F0D68044F60041C4F200016D
:102F2000884240F06881002643F630000196C4F2E2
:102F30000200016946F2400841F400210161016983
:102F4000C4F2020801F4002101910199019601687F
:102F500041F004010160006802A900F00400019042
:102F600001984FF4406002900220CDE9030603204F
:102F70000590082006900020C4F2020000F50060D1
:102F8000FEF786F840F27025C2F200054FF00067A8
:102F90004FF480692846C5E90087C5E90266C5E99E
:102FA0000496C5E90666C5E90866FDF76FFF0028C7
:102FB00018BFFDF72DFEE563AC6340F2D02508F1A4
:102FC0003000C2F200054021C5E9000705F1080004
:102FD00080E842022846C5E90566C5E907666E62D3
:102FE000FDF754FF002818BFFDF712FEA563AC6380
:102FF0003424F8E044F20041C4F20001884200F0B9
:10300000C98044F60001C4F20001884240F0F38018
:10301000002043F630010190C4F202010A6942F433
:1030200080220A610A6902F480220192019A0190C9
:103030000A6842F008020A60096801F0080101917B
:1030400001994FF4407102910221CDE90310032050
:103050000590072006900020C4F2020000F54060B1
:1030600002A9FEF715F82724BDE000BF002043F6B3
:1030700030010190C4F202014A6942F020024A6123
:103080004A6902F020020192019A01900A6842F016
:1030900004020A60096801F0040101910199C0214C
:1030A00002910221CDE9031003200590082006902B
:1030B0000020C4F2020000F5006002A9FDF7E8FF5D
:1030C000472490E0002643F630000196C4F2020047
:1030D000416946F2400841F0100141614169C4F282
:1030E000020801F01001019101990196016841F077
:1030F00001010160006802A900F00100019001983F
:103100004FF4C06002900220CDE903060320059031
:10311000072006900020C4F20200FDF7B9FF40F23C
:10312000303508F58060C2F200054FF000674FF4BB
:103130008069C5E900072846C5E90266C5E9049625
:10314000C5E90666C5E90866FDF7A0FE002818BFB8
:10315000FDF75EFDE563AC6340F2903508F58F60E6
:10316000C2F200054021C5E9000705F1080080E82A
:1031700042022846C5E90566C5E907666E62FDF7A5
:1031800085FE002818BFFDF743FDA563AC63252429
:1031900029E000BF002043F630010190C4F2020193
:1031A0000A6942F400320A610A6902F400320192AB
:1031B000019A01900A6842F001020A60096801F070
:1031C0000101019101990C2102910221CDE9031025
:1031D00003200590072006900020C4F2020002A9F7
:1031E000FDF756FF2624204605210022FEF726FA89
:1031F0002046FEF70FFA07B0BDE8F08390F84230A2
:10320000202B1CBF0220704700294FF0010318BF7C
:10321000002A01D1184670470023036381622221EE
:103220008285C285436480F842100169006819B143
:10323000C16841F48071C1604169002341F001011E
:103240004161C16841F02001C1601846704700002B
:1032500040F26C71C2F20001884218BF704700F062
:103260008DB80000B0B5044690F8410020281CBF7E
:103270000220B0BD00294FF0010056D0002A1346AD
:1032800008BFB0BD4FF0000C21202162A384E3846D
:10329000C4F844C084F84100A06B44F2794E44F273
:1032A00029552268C0F6000EC0F60005C0E90FE5FA
:1032B00044F2FD25C0F600050432C0E9135CFDF7B9
:1032C00097FE38B110206064202084F8410001206E
:1032D000B0BD00BF20686FF040010160206850E879
:1032E000050F216840F0800041E80502F2B1206836
:1032F00050E8050F216840F0800041E80502AAB1BE
:10330000206850E8050F216840F0800041E8050280
:1033100062B1206850E8050F216840F0800041E864
:103320000502002A4FF00000D8D1B0BD0020B0BD8A
:1033300040F2B471C2F20001884218BF704780B5F4
:1033400084B040F24820C2F2000040F20C02C2F207
:10335000000290ED020A417812880020CDE90100B8
:10336000BCEEC00A022000238DED000AFDF71CFC14
:1033700004B080BD70470000FEE7000040F2681016
:10338000C2F200000278437840F6945CC2F2000C6E
:103390000CF803209CF800105A1C5529427015D1D6
:1033A000D1B20B2930D39CF80110A1F15102032AAC
:1033B00026D8DFE802F0030F171F00BFDCF8021069
:1033C000DCF80620C0E904121AE000BF00214170B9
:1033D0001AE000BFDCF80210DCF80620C0E9081291
:1033E0000EE000BFBCF80610DCF80220C185C0F872
:1033F0002A2005E0DCF80210DCF80620C0E90E12F5
:103400004FF48071A0F8011040F26C7040F2681126
:10341000C2F20000C2F200010122FFF7EFBE00007D
:10342000B0B540F6004440F25C15C4F20204C2F2AA
:1034300000050020287020461021FDF7FDFE10B980
:1034400028780130287020468021FDF7F5FE10B95C
:1034500028780230287004F5806420460121FDF7A9
:10346000EBFE10B928780430287020460221FDF7C1
:10347000E3FE2978002804BF08312970687838B93C
:103480000A0605D00020A880A9706970B0BD00BFF1
:103490000A0607D130B1A8880B2808D3A87869702C
:1034A000E870B0BDA878CAB2824228BFA97069701E
:1034B000B0BD000001F0A8F940F2682540F26016A6
:1034C00040F20044C2F20005C2F20006C4F2020457
:1034D000002704E001F098F9013001F079F928881B
:1034E000318801302880481C3080FFF799FF2888F8
:1034F000B0F57A7FEED320460421FDF7A3FE2F809E
:10350000E8E7000080B582B0002043F6300101906A
:10351000C4F202010A6842F480020A600A6802F4F6
:1035200080020192019A00900868002240F4001085
:1035300008600868052100F40010009000980D2034
:10354000FEF77CF80D20FEF765F80F20052100221C
:10355000FEF774F80F20FEF75DF83A2005210022EF
:10356000FEF76CF83A20FEF755F8462005210022B8
:10357000FEF764F8462002B0BDE88040FEF74AB886
:1035800080B544F2A50046F68C02C0F60000C0F6F5
:103590000002002101F072F940F26C21C2F2000138
:1035A000086080BD2DE9F04F87B0002443F630005D
:1035B00006940194C4F20200016841F2000841F04F
:1035C000100101600168C4F2020801F010010191CC
:1035D000019901940168012241F004010160016830
:1035E00041F2985501F0040101910199019401689B
:1035F0004FF0010941F080010160016801F0800194
:10360000019101990194016841F001010160016893
:1036100001F00101019101990194016841F0020159
:103620000160016801F002010191019901940168B2
:1036300041F008010160006841F2985100F0080073
:10364000019001984046FDF705FEA8F50067384651
:10365000032101224FF0030AFDF7FCFDA8F54066A7
:103660003046042100224FF0040BFDF7F3FDCDE9B5
:10367000025902AD40462946CDE90444FDF708FD54
:1036800038462946CDE902A9CDE90444FDF700FDFD
:1036900030462946CDE902B9CDE90444FDF7F8FCEE
:1036A000902002A981E81102A8F580602946FDF763
:1036B000EFFC40462946CDE902A4CDF81090FDF775
:1036C000E7FC07B0BDE8F08F80B540F2F03045F27E
:1036D0000041C2F20000C4F2000100234FF4804C0C
:1036E0004CF2503280E80E00C0E9033CC0E90533DB
:1036F000C0E90733FDF7BAFD002808BF80BDBDE86B
:103700008040FDF785BA000080B540F2444045F6A0
:103710000001C2F20000C4F2000148F2A0620023DE
:103720004FF4804CC0F2010280E80E00C0E9033C77
:10373000C0E90533C0E90733FDF798FD002808BF4D
:1037400080BDBDE88040FDF763BA0000B0B590B021
:1037500041F6000540F2E440C4F200050021C2F247
:103760000000A72263230A91CDE908110691CDE953
:103770000411CDE90211CDE90011C0E90052C0E900
:10378000021301618161FEF7DDFA002818BFFDF721
:103790003FFA4FF48050079040F2E440C2F200003C
:1037A00007A9FEF7A7FB002818BFFDF731FA40F282
:1037B000E440C2F20000FEF737FF002818BFFDF713
:1037C00027FA602000900020CDE90100049040F22B
:1037D000E440C2F2000069460022FEF713FE002812
:1037E00018BFFDF715FA40F2E444C2F2000469463E
:1037F00020460422FEF706FE002818BFFDF708FA4F
:103800002068A8421AD044F20001C4F201018842A3
:1038100032D100200B9043F63000C4F20200016860
:10382000602241F0100101600068032100F01000E7
:103830000B900B9805F5FC3014E000BF00200B90B6
:1038400043F63000C4F2020001684FF4404241F0F8
:10385000020101600068092100F002000B900B9842
:1038600005F5F6300B9202220C9200220F910BA963
:10387000CDE90D22FDF70CFC10B0B0BD10B58CB039
:1038800040F29C4000210024C2F20000C4F2010179
:10389000C0E9001403214FF6FF72CDE903140121A2
:1038A000C0E90242CDE905140F22CDE9091403A9AC
:1038B000CDE90044C0E904448461CDE907240B92BA
:1038C000FEF7E6FB002818BFFDF7A2F940F29C4086
:1038D000C2F200006946CDE90044FEF7D7F900289E
:1038E00018BFFDF795F90CB010BD000080B58CB085
:1038F00040F22C5040F200420021C2F20000C4F21B
:1039000000024FF6FF73C0E900210322C0E9021351
:10391000CDE9032101220F23CDE90011016181616D
:10392000CDE90521CDE90731CDE9092103A90B93A3
:10393000FEF7AEFB002818BFFDF76AF940F22C50E5
:10394000C2F200006946FEF7A1F9002818BFFDF792
:103950005FF90CB080BD000080B58CB040F27450AF
:1039600040F600020021C2F20000C4F200024FF64D
:10397000FF73C0E90021C0E9021303224FF0010CDC
:103980000F23CDE9001101618161CDE90321CDE96A
:1039900005C10222CDE90A1303A90793CDE9082C3A
:1039A000FEF776FB002818BFFDF732F940F274509D
:1039B000C2F200006946FEF769F9002818BFFDF75A
:1039C00027F90CB080BD000080B58CB040F2BC502F
:1039D00040F600420021C2F20000C4F200024FF69D
:1039E000FF73C0E900210322C0E90213CDE90321DE
:1039F00001220F23CDE9001101618161CDE905218B
:103A0000CDE90731CDE9092103A90B93FEF740FB6E
:103A1000002818BFFDF7FCF840F2BC50C2F20000CD
:103A20006946FEF733F9002818BFFDF7F1F80CB02E
:103A300080BD000080B582B040F2046041F2000217
:103A40000021C2F20000C4F20002A72340F2E73CCA
:103A5000CDE90011C0E90023C0E9021C8161FEF735
:103A600071F9002818BFFDF7D3F840F20460C2F2E4
:103A700000006946FEF70AF9002818BFFDF7C8F8EC
:103A800002B080BDB0B590B044F2000540F2946041
:103A9000C4F201050021C2F20000A72263230A91AB
:103AA000CDE908110691CDE90411CDE90211CDE966
:103AB0000011C0E90052C0E9021301618161FEF703
:103AC00041F9002818BFFDF7A3F84FF48050079084
:103AD00040F29460C2F2000007A9FEF70BFA00283A
:103AE00018BFFDF795F840F29460C2F20000FEF7AF
:103AF0009BFD002818BFFDF78BF860200090002088
:103B0000CDE90100049040F29460C2F200006946E1
:103B10000022FEF777FC002818BFFDF779F840F285
:103B20009464C2F20004694620460422FEF76AFC4F
:103B3000002818BFFDF76CF8206841F60001C4F2B8
:103B40000001884216D0A84232D100200B9043F6E3
:103B50003000C4F202000168602241F010010160EF
:103B60000068032100F010000B900B9805F5504001
:103B700014E000BF00200B9043F63000C4F20200B6
:103B800001684FF4404241F00201016000680921E0
:103B900000F002000B900B9805F544400B920222B6
:103BA0000C9200220F910BA9CDE90D22FDF770FABE
:103BB00010B0B0BD80B540F2B47044F60041C2F21E
:103BC0000000C4F2000100234FF00C0C4FF4E1326E
:103BD00080E80E00C0E90333C0E905C3C361FFF705
:103BE0004BF9002808BF80BDBDE88040FDF710B844
:103BF00080B540F2DC6041F20001C2F20000C4F284
:103C0000010100234FF00C0C4FF4165280E80E0017
:103C1000C0E90333C0E905C3C361FFF72DF90028EC
:103C200008BF80BDBDE88040FCF7F2BF80B540F220
:103C3000247044F20041C2F20000C4F200010023EB
:103C40004FF00C0C4FF4E13280E80E00C0E9033372
:103C5000C0E905C3C361FFF70FF9002808BF80BDA5
:103C6000BDE88040FCF7D4BF80B540F26C7044F6EC
:103C70000001C2F20000C4F2000100234FF00C0C5E
:103C80004FF4165280E80E00C0E90333C0E905C3C3
:103C9000C361FFF7F1F8002808BF80BDBDE8804090
:103CA000FCF7B6BF80B540F2FC7041F20041C2F2B1
:103CB0000000C4F2010100234FF00C0C4FF4E1327C
:103CC00080E80E00C0E90333C0E905C3C361FFF714
:103CD000D3F8002808BF80BDBDE88040FCF798BF3E
:103CE000FEE7000010B541F20004C4F202042046D1
:103CF0004FF480710122FDF7ADFA204680210122A8
:103D0000FDF7A8FA20464FF480510122FDF7A2FAF0
:103D100020464FF480610122FDF79CFA20461021D5
:103D20000122FDF797FA204608210122FDF792FAB9
:103D3000A4F50064204602210122FDF78BFA2046FB
:103D400001210122FDF786FA40F29464C2F20004D8
:103D500020460021FEF79AFC20460421FEF796FC3F
:103D600040F2E444C2F2000420460021FEF78EFC3B
:103D700020460421BDE81040FEF788BCB0B50328FA
:103D800088BFB0BD0C46DFE800F0031B334F00BF17
:103D900041F20005C4F20205012C28464FF480616F
:103DA00060DB0022FDF756FA28464FF480510122CD
:103DB000FDF750FA40F2E440632CC2F200004BE001
:103DC00041F20005C4F20205012C28464FF08001A3
:103DD00056DB0022FDF73EFA28464FF4807101229F
:103DE000FDF738FA40F2E440632CC2F2000015E01F
:103DF00041F20005C4F20205012C28464FF00801EB
:103E000050DB0122FDF726FA284610210022FDF79B
:103E100021FA40F29460632CC2F200000068A8BF4F
:103E200063244463B0BD00BF41F20000C4F202004D
:103E3000A0F50065012C28464FF0010146DB002269
:103E4000FDF708FA284602210122FDF703FA40F2A5
:103E50009460632CC2F200000068A8BF63248463EE
:103E6000B0BD00BF0122FDF7F5F928464FF480519F
:103E70000022FDF7EFF940F2E441C2F2000131E027
:103E80000122FDF7E7F928464FF480710022FDF783
:103E9000E1F940F2E441632014F1640FC2F2000141
:103EA0000FE000BF0022FDF7D5F9284610210122BE
:103EB000FDF7D0F940F29461632014F1640FC2F26F
:103EC00000010968C8BF60424863B0BD0122FDF728
:103ED000C1F9284602210022FDF7BCF940F29461A5
:103EE000C2F200010968632014F1640FC8BF604288
:103EF0008863B0BD00F088FCFFF7F4FE01200021CC
:103F0000FFF73CFF02200021FFF738FF00F07CFCA8
:103F10000A3000F05DFCF9E7B0B58AB00F4802AF97
:103F200001900EA000F1040ED0E90645006A9EE85B
:103F30000E50099043F6F56087E80E50C0F6000079
:103F400001AA0021CDE9074500F098FC40F2984114
:103F5000C2F2000108600AB0B0BD00BFD568000819
:103F60000000000000000000000000000000000051
:103F70000004000018000000000000000000000025
:103F80002DE9F0418AB046F64800C0F6000090E8FE
:103F90001E50D0E90656006A01AFCDE9086043F231
:103FA000B54087E81E50C0F6000001AA0021079521
:103FB00000F064FC40F25418C2F20008C8F8000097
:103FC00046F62400C0F6000090E84E00D0E9045404
:103FD000D0E9067C006A0DF1040ECDE908C040F678
:103FE00099308EE84E00C0F6000001AA0021CDE90C
:103FF0000554079700F042FCC8F80400FFF78CFF57
:104000000AB0BDE8F0810000FEE7000000000000FB
:10401000EFF30980BFF36F8F154B1A681EF0100F76
:1040200008BF20ED108A20E9F04F10602DE909004B
:104030004FF0500080F31188BFF34F8FBFF36F8FA5
:1040400001F08AFD4FF0000080F31188BDE80900FF
:1040500019680868B0E8F04F1EF0100F08BFB0EC08
:10406000108A80F30988BFF36F8F704700BF00BFCD
:1040700078000020000000000000000000000000A8
:10408000074B19680868B0E8F04F80F30988BFF360
:104090006F8F4FF0000080F31188704700BF00BFA2
:1040A00078000020012000F083FBFBE780B54EF292
:1040B0001000CEF20000006802F09CF9012808BF51
:1040C00080BDBDE8804001F067BE0000B0B592B091
:1040D000002443F64000CDE90A44CDE908440594A4
:1040E000CDE90344CDE901440094C4F20200016823
:1040F000022541F080510160006800F0805000907E
:10410000009847F200000094C4F20000016841F4F6
:10411000804101600068A82100F480400090009870
:10412000012006904FF4803007904FF480000D90EE
:1041300004200E90119006A80C95CDE90F15FDF7FF
:10414000E7FB18B172B600BFFEE700BF0F20CDE954
:1041500001054FF4A05004904FF48050059001A841
:1041600005210394FDF7A6FA10B172B6FEE700BF71
:1041700012B0B0BD4EF68850CEF20000016841F496
:10418000700101607047000040F20460C2F200005C
:10419000FEF78EB840F24C60C2F20000FEF788B81D
:1041A000B0B540F6FF3E0568C4F2000E40F2004C88
:1041B0007045C4F2010C27DCB0F1804F31D040F2E1
:1041C0000043C4F2000398422BD040F60003C4F22F
:1041D0000003984225D041F6FF73C4F200039842D1
:1041E0002ADC70453CDCB0F1804F5FD040F20043E8
:1041F000C4F20003984259D040F60003C4F2000311
:10420000984253D057E000BF40F60043C4F2000389
:10421000984206D0604504D00023C4F201039842BE
:10422000D9D14B6825F0700243EA020541F6FF73CD
:10423000C4F200039842D4DD43F6FF73C4F20103D5
:10424000984221DC42F20003C4F2000398422DD0D0
:104250000023C4F20103984228D0604526D02AE00A
:1042600040F60043C4F2000398421FD041F6000319
:10427000C4F20003984219D041F60043C4F200038F
:10428000984213D017E000BF44F20003C4F20103C8
:1042900098420BD044F60003C4F20103984205D0C3
:1042A00044F20043C4F20103984204D1CB6825F4E0
:1042B000407243EA02050A688C684B69C46240F4A4
:1042C00080648262644504BF09690163026825F065
:1042D000800142F004021943026001224261016040
:1042E000B0BD000040F2B470C2F20000FEF702BBA5
:1042F000806B0021C185FEF7FBBA0000806B01686E
:104300004A6990F84130212B2DD112F080022AD039
:104310000021C184016851E8031F026821F0C00137
:1043200042E80313DBB1016851E8031F026821F082
:10433000C00142E8031393B1016851E8031F02680A
:1043400021F0C00142E803134BB1016851E8031F9B
:10435000026821F0C00142E80313002BDAD12021CA
:1043600080F841100168496990F84220222A40F003
:104370007D8011F0400179D00021C185016851E8AC
:10438000031F026821F4907142E80313BBB3016874
:1043900051E8031F026821F4907142E8031373B3DC
:1043A000016851E8031F026821F4907142E8031389
:1043B0002BB3016851E8031F026821F4907142E8B1
:1043C0000313002BDAD11AE0016851E8051F0268D7
:1043D00021F0010142E80513DBB1016851E8051F36
:1043E000026821F0010142E8051393B1016851E828
:1043F000051F026821F0010142E805134BB1016875
:1044000051E8051F026821F0010142E80513002B65
:10441000DAD1016B012924D1016851E8031F026838
:1044200021F0100142E80313DBB1016851E8031FDA
:10443000026821F0100142E8031393B1016851E8CA
:10444000031F026821F0100142E803134BB1016819
:1044500051E8031F026821F0100142E80313002B0A
:10446000DAD1202180F8421000210163416C41F033
:1044700010014164FEF73CBA0168806B0968C90508
:1044800048BFFEF755BF0021C18400BF016851E855
:10449000051F026821F0800142E8051383B301681B
:1044A00051E8051F026821F0800142E805133BB383
:1044B000016851E8051F026821F0800142E80513F8
:1044C000F3B1016851E8051F026821F0800142E85C
:1044D0000513002BDAD113E0016851E8031F0268CD
:1044E00041F0400142E80313002B08BF7047016808
:1044F00051E8031F026841F0400142E8031393B101
:10450000016851E8031F026841F0400142E80313CB
:104510004BB1016851E8031F026841F0400142E8D5
:104520000313002BD8D17047806BFEF723BF000028
:1045300081B090F84210222921D183680246B3F558
:10454000805F09D152F8281F52F8183C002B63D025
:1045500003685B680AE000BF52F8281F13B90369BB
:10456000002BF5D003685B6803F07F030B701168C4
:1045700001311160C18D01390A04C18502D001B039
:10458000704700BF0168CA6822F02002CA60CA688A
:1045900022F48072CA604A6922F001024A61202135
:1045A00080F8421000214163026B012A3CD1016373
:1045B000016851E8031F026821F0100142E803136B
:1045C000DBB1016851E8031F026821F0100142E8E5
:1045D000031393B1016851E8031F026821F0100131
:1045E00042E803134BB1016851E8031F026821F050
:1045F000100142E80313002BDAD101680A68D206E1
:1046000006D5002200920A6800924968009100993C
:10461000818D01B0FEF734B9026852686FF35F22F2
:1046200021F8022B8162A5E701B0FEF711BE000060
:1046300010B504460068D4E902C22369016921F477
:10464000405111430161626943EA0C01E36911437E
:10465000C268194349F20C639A431143C16041692E
:10466000A26921F4407141F20043114340F4806299
:10467000C4F201039A42416102D1FDF7FFF801E063
:10468000FDF7E8F8E16963681922B1F5004FA0FB76
:10469000020123D15A00DB0FFBF7EEFD48F21F5158
:1046A000C5F2EB11A0FB01235A094FF69C73C0F62B
:1046B000FF7303F1805302FB0300322303EBC000BE
:1046C000A0FB01014FF4F87000EA111000EB02109A
:1046D000C1F3421108442168886010BD9A009B0F05
:1046E000FBF7CAFD48F21F51C5F2EB11A0FB0123F5
:1046F0005A094FF69C73C0F6FF7302FB0300322386
:1047000003EB0010A0FB0101F02000EA511000EBC8
:104710000210C1F3431108442168886010BD0000F5
:1047200040F2DC60C2F20000FEF7E4B840F2247010
:10473000C2F20000FEF7DEB840F26C70C2F2000078
:10474000FEF7D8B840F2FC70C2F20000FEF7D2B813
:10475000FEE70000FCF7C2FEFFF7B8FCFEF722FF01
:10476000FEF7D0FEFEF7B0FFFFF788F8FFF7BEF8C0
:10477000FFF7F2F8FFF728F9FFF784F9FEF7E6FFF5
:10478000FFF758F9FFF770FAFEF7BEFFFFF74EFA92
:10479000FFF72EFAFFF786FAFFF70CFAFFF7F0FBA8
:1047A00000F03AF8FEF7ECFE00F04AF8FEE70000F1
:1047B000EFF3058100291CBF6FF00500704700284A
:1047C00004BF0020704780B501F016F8002080BDBE
:1047D00010B582B0EFF3058121B16FF0050002B092
:1047E00010BD00BF044601F015FE01460190844251
:1047F0006FF0030005D0611A03D401A801F03CF862
:10480000002002B010BD0000EFF30580002808BFB3
:1048100001F000BE01F004BEEFF3058000281CBFCC
:104820006FF00500704740F26420C2F2000001689A
:10483000002911BF4FF0FF300121016000207047B7
:1048400010B5EFF3058000281CBF6FF0050010BD08
:1048500040F26420C2F20000016801291CBF4FF041
:10486000FF3010BD4EF61F51CEF2000100240C7037
:104870000221016001F0F0F8204610BD2DE9F04161
:1048800084B08E4600240394EFF3058150B149B9FA
:104890004FF0000452B19369002B08BF1823382B46
:1048A00016D90024204604B0BDE8F08180251823E5
:1048B000002103AF0093AAB27346019701F02EFDC9
:1048C0000399012808BF0C46204604B0BDE8F081DA
:1048D0001179C90724D15769D2E902864FEA970CAA
:1048E0001168002F654608BF8025B8F1000F13D06E
:1048F0005C2E15D312690024002A18BF002FD1D0D6
:10490000CDE9003262467346CDF8088001F036FDED
:1049100004B0BDE8F08100BF16B91269002AC8D002
:104920000024204604B0BDE8F08100002DE9F041EC
:10493000044600F0EFFD40F27806C2F20006F0688F
:1049400040F634150130F0603068C2F2000558B10D
:104950003069002840F007813068E16AC06A884207
:1049600098BF3460FFE000BF3460F068012840F079
:10497000FA80284600F074FD05F1140000F070FD87
:1049800005F1280000F06CFD05F13C0000F068FD29
:1049900005F1500000F064FD05F1640000F060FDD9
:1049A00005F1780000F05CFD05F18C0000F058FD89
:1049B00005F1A00000F054FD05F1B40000F050FD39
:1049C00005F1C80000F04CFD05F1DC0000F048FDE9
:1049D00005F1F00000F044FD05F5827000F040FDA7
:1049E00005F58C7000F03CFD05F5967000F038FD83
:1049F00005F5A07000F034FD05F5AA7000F030FD5B
:104A000005F5B47000F02CFD05F5BE7000F028FD32
:104A100005F5C87000F024FD05F5D27000F020FD0A
:104A200005F5DC7000F01CFD05F5E67000F018FDE2
:104A300005F5F07000F014FD05F5FA7000F010FDBA
:104A400005F5027000F00CFD05F5077000F008FD9B
:104A500005F50C7000F004FD05F5117000F000FD87
:104A600005F5167000F0FCFC05F51B7000F0F8FC75
:104A700005F5207000F0F4FC05F5257000F0F0FC61
:104A800005F52A7000F0ECFC05F52F7000F0E8FC4D
:104A900005F5347000F0E4FC05F5397000F0E0FC39
:104AA00005F53E7000F0DCFC05F5437000F0D8FC25
:104AB00005F5487000F0D4FC05F54D7000F0D0FC11
:104AC00005F5527000F0CCFC05F5577000F0C8FCFD
:104AD00005F55C7000F0C4FC05F5617000F0C0FCE9
:104AE00005F5667000F0BCFC05F56B7000F0B8FCD5
:104AF00005F5707000F0B4FC05F5757000F0B0FCC1
:104B000005F57A7000F0ACFC05F57F7000F0A8FCAC
:104B100005F5826000F0A4FC05F2244000F0A0FC42
:104B200005F5876000F09CFC05F24C4000F098FC15
:104B300040F22028C2F20008404600F091FC08F143
:104B40001407384600F08CFC06F1640000F088FC85
:104B500006F13C0000F084FC06F1500000F080FCFF
:104B6000C6F81C8037627068716A421CE06A726025
:104B70008842626488BF706200EB800005EB8000B1
:104B8000211D00F0AFFC00F0E9FC306988B130680D
:104B9000E16AC06A884228BFBDE8F0814EF6045041
:104BA000CEF200004FF080510160BFF34F8FBFF392
:104BB0006F8FBDE8F081000040F2780540F63416B2
:104BC0004EF60458C2F20005C2F20006CEF200080A
:104BD0004FF0805703E000BF204600F0D7FCA868E4
:104BE000D0B100F097FCA86CC468201D00F00AFC4E
:104BF000E8680138E860A8680138A86000F0AEFCF9
:104C000094F859000228EAD00128E5D070B9206B49
:104C100000F0BCFCE0E700BF30680228DFD3C8F832
:104C20000070BFF34F8FBFF36F8FD8E74FF0500086
:104C300080F31188BFF36F8FBFF34F8FFEE7000043
:104C40002DE9F0470A9C8246206B16460F46DDE9A7
:104C500008599100A5229846FBF78FFC206B002F86
:104C600000EB8600A0F1040020F0070656D038784B
:104C700084F83400387800284BD0787884F83500F0
:104C80007878002845D0B87884F83600B8780028BD
:104C90003FD0F87884F83700F878D0B3387984F8C2
:104CA00038003879A8B3787984F83900787980B3F6
:104CB000B87984F83A00B87958B3F87984F83B00A9
:104CC000F87930B3387A84F83C00387A08B3787AC7
:104CD00084F83D00787AE0B1B87A84F83E00B87A7A
:104CE000B8B1F87A84F83F00F87A90B1387B84F84C
:104CF0004000387B68B1787B84F84100787B40B114
:104D0000B87B84F84200B87B00281CBFF87B84F88D
:104D10004300002084F8430003E000BF002084F833
:104D200034000027201D372D28BF3725E562C4E950
:104D3000135700F0A1FB04F1180000F09DFBC5F132
:104D40003800A0613046514642462461646267657E
:104D500084F8587000F042FBB9F1000F206018BFD2
:104D6000C9F80040BDE8F08708480068006880F393
:104D700008884FF0000080F3148862B661B6BFF374
:104D80004F8FBFF36F8F00DF00BF000008ED00E022
:104D900081B00020009040F21000C2F200000068D4
:104DA0004FF0500181F31188BFF36F8FBFF34F8F26
:104DB000013007D0FEE700BF009830B9009820B955
:104DC000009810B900980028F6D001B07047000094
:104DD00088B040F2F00AC2F2000A0DF11009EB4669
:104DE000DAF8080005681DB1C068046801E000BF7A
:104DF000002400F0A9FE01F00DFBDAF810100646C1
:104E0000884220D3002DCAF8106051D0A6424FD35B
:104E100001F012FCDAF80800C068C7683D1D28469A
:104E200000F0F0FA97F82800410745D400F0FE00A2
:104E300087F8280084E000BF6860DAF80800394687
:104E40002D6100F01DFBDAF80800016831B3C0687D
:104E5000C56804682F1D384600F0D4FA296A284630
:104E6000884795F828004007EDD5A8692044A0425E
:104E7000E2D8DAF80000002800F04881002004A9F8
:104E800031C101F0B7FADAF80000494600220023E8
:104E900001F00AF80028D6D138E100BFDAF80C108A
:104EA000CAF81060CAE9021001F0C6FB1AE100BF9F
:104EB00065B1002210E000BFB8693F610119B1423D
:104EC00079601FD90AF1080021E000BFDAF80C0070
:104ED0000068B0FA80F04209DAF80000A11B00F087
:104EE00061FC01F0A9FB002840F0FC804EF6045064
:104EF000CEF200004FF080510160BFF34F8FBFF33F
:104F00006F8FEFE0311B814206D20AF10C0000687E
:104F1000294600F0B5FA13E0DAF80000002800F0A6
:104F20001381002004A991C101F064FADAF80000AD
:104F300049460022002300F0B7FF002800F004815A
:104F4000396A38468847CDE00098B0F1FF3F07DC6A
:104F5000DDE90120039990470098002800F1C28004
:104F6000029E706910B1301D00F04CFA01F052FA47
:104F7000DAF81010074688420DD30098CAF810706E
:104F800009283FD9AEE000BF6860DAF80800214682
:104F90002D6100F075FADAF80800016841B3C068C5
:104FA000C568D0F800802C1D204600F02BFA296A35
:104FB0002846884795F828004007ECD5A869404462
:104FC0004045E1D8DAF80000002800F09580002084
:104FD000CDE90408069501F00DFADAF8000049461B
:104FE0000022002300F060FF0028D4D184E000BF3D
:104FF000DAF80C10CAE902100098CAF810700928F3
:1050000000F27080DFE800F00606064448620606FB
:10501000444800BF96F82800019A40F00101B069A9
:1050200086F828108318314641F8043FBB423661A8
:1050300006D997420AF1080007D293420AD204E047
:10504000BA1A824206D20AF10C00006800F018FA7F
:1050500048E000BF316A3046884796F8280040078C
:1050600040D5DAF8000000285AD00198B1690696B8
:1050700008440021CDE9041001F0BCF9DAF8000081
:1050800049460022002300F00FFF58BB48E000BF54
:1050900096F8280022E000BF96F8280040F00101B1
:1050A000019886F828100028B06143D03844314672
:1050B0000AF10C0241F8040F3661B84288BF0AF1C8
:1050C0000802106800F0DCF90CE000BF96F8280038
:1050D000810703D4304600F059FA03E000F0FE00E7
:1050E00086F82800DAF800005946002200F0F2FFA6
:1050F00000287FF429AF73E64FF0500080F3118849
:10510000BFF36F8FBFF34F8FFEE700BF4FF050002C
:1051100080F31188BFF36F8FBFF34F8FFEE700BF9F
:105120004FF0500080F31188BFF36F8FBFF34F8FA4
:10513000FEE700BF4FF0500080F31188BFF36F8F80
:10514000BFF34F8FFEE700BF4FF0500080F3118890
:10515000BFF36F8FBFF34F8FFEE70000F0B581B054
:10516000044600F0D7F994F94560012E0FDB04F1F5
:10517000240500BF286850B1284601F023FA002812
:1051800018BF00F0E9FBF0B2013E0128F2D8FF267B
:1051900084F8456000F0E2F900F0BCF994F944703D
:1051A000012F0EDB04F11005286850B1284601F0EC
:1051B00009FA002818BF00F0CFFBF8B2013F012820
:1051C000F2D884F8446001B0BDE8F04000F0C6B900
:1051D00070B5044600F0B8FC40F22C1CC2F2000C82
:1051E000DCF8040050B19CF80000002818BF4FF014
:1051F00000404FF0000574BB8DE000BF40F6F85052
:10520000C2F20000C21D22F0070210F00701A0EB5D
:10521000020318BF104600224FF47055CCE9060275
:10522000002918BF03F57055411921F00701A1F1BC
:105230000803CCF8043041E90222191AC0E9003110
:1052400001208CF800004FF00040CCE90211002C46
:105250004FF000055FD020405DD124F0070000F141
:105260001002600708BF04F10802002A4FF0000591
:1052700051D0DCF8080082424DD8604650F818EF53
:10528000DEF8045095422CD2DEF80010C1B174460D
:105290004D68954218D20B68B3B15D68954217D23C
:1052A0001868A8B14568954216D20468A4B165682B
:1052B000954215D22168A6460029E9D111E000BF28
:1052C0000CF118000DE000BF8E46204609E000BF3B
:1052D0009E46084605E000BF8646184601E000BF2E
:1052E000A646DCF804108E4514D00168DEF80040B4
:1052F000AB1A112B04604DD30EEB0205680719D0D1
:105300004FF0500080F31188BFF36F8FBFF34F8FC2
:10531000FEE700BF002501F08FF968075BD04FF072
:10532000500080F31188BFF36F8FBFF34F8F00BF22
:10533000FEE700BF0CF118006B60CEF8042000BF40
:105340000368AB420AD21868A8420BD20368AB428A
:1053500004D218681A46A842F2D304E0024618465E
:1053600001E000BF1A4653686C68D618AE4202D1FD
:105370001C44154654602B19834207D1DCF80430D5
:10538000984203D0D0E9000323446B60AA4228600E
:1053900018BF156001F10805DEF80400DCE902120F
:1053A000091A9142CCF8081038BFCCF80C109CF8C0
:1053B0000010002918BF40F00040CEF80400DCF8CF
:1053C000100000210130CEF80010CCF8100001F0E0
:1053D00033F96807A3D1284670BD0000034644F6A0
:1053E0009150C0F600004FF0807C21F0010103E9EC
:1053F00003106FF0020043F8240CA3F1440043F8BB
:10540000202C7047D0E9013201699A60D1F804C0BC
:1054100082688445536008BF4A60002202610868C0
:10542000013808600868704744F6FC33C2F2000394
:10543000036044F6FC10C2F2000008608020106097
:105440007047000045F25803C2F20003036044F6BF
:105450005840C2F2000008604FF48070106070473E
:105460004FF0FF31024642F8081F00214260C0E9B8
:1054700003220160704700000021016170470000B5
:1054800010B5D1F800E01EF1010213D000F10804BC
:1054900062681368734511D853681C68744511D845
:1054A0005A68146874450FD854682368A446734535
:1054B000EED90BE00269D2F804C007E09446224618
:1054C00004E000BF9C4601E094461A46C1F804C0BF
:1054D000CCF808108A6051600861016801310160F0
:1054E00010BD0000D0F800C0436808619A684B60A6
:1054F0008A609A68996051600CF1010101607047FF
:10550000DFF80C00016841F4700101607047000091
:1055100088ED00E04FF0500080F31188BFF36F8FEB
:10552000BFF34F8F40F21000C2F2000001684A1C26
:10553000026009B1704700BF4EF60450CEF2000081
:105540000068000608BF70474FF0500080F31188D4
:10555000BFF36F8FBFF34F8FFEE7000040F21000E4
:10556000C2F20000016839B10139016018BF70470B
:10557000002080F3118870474FF0500080F31188AD
:10558000BFF36F8FBFF34F8FFEE7000070B50028A9
:1055900008BF70BD40F22C15C2F200050446287801
:1055A00054F8041C002818BF4FF0004008420DD0EA
:1055B000A4F1080632689AB14FF0500080F31188C8
:1055C000BFF36F8FBFF34F8FFEE700BF4FF0500068
:1055D00080F31188BFF36F8FBFF34F8FFEE700BFDB
:1055E00021EA000044F8040C00F0AEFA54F8041C60
:1055F000A8680844A86005F1180000BF0368B3421A
:105600000AD21868B04225D20368B34204D218689F
:105610001A46B042F2D301E0024618465368D41845
:10562000B44202D11944164651607318834206D120
:105630006B68984203D0D0E9000319447160B2420C
:10564000306018BF1660686901306861BDE870405D
:1056500000F0F2BF1A465368D418B442E5D1E1E72E
:105660004EF21000CEF2000000210160816040F295
:105670000801C2F20001096844F6D352C1F2620285
:10568000A1FB02124FF0FF3101EB921141600721A3
:105690000160704740F24C10EFF305811029C2F20F
:1056A000000011D34EF2F032CEF20002895C027893
:1056B000914209D24FF0500080F31188BFF36F8FF1
:1056C000BFF34F8FFEE700BF4EF60C51CEF2000144
:1056D0000968406801F4E061814298BF70474FF06B
:1056E000500080F31188BFF36F8FBFF34F8F00BF5F
:1056F000FEE7000045F2B40CC2F2000CDCF800201A
:1057000022B3634653F8082F42B3634653F8102F71
:1057100052B3634653F8182F62B3634653F8202FF1
:1057200072B3634653F8282F82B3634653F8302F81
:1057300092B3634653F8382F002A18BF70470722E8
:1057400019600CEBC2014860704700BF002263463D
:1057500019600CEBC2014860704700BF012219605C
:105760000CEBC20148607047022219600CEBC201C9
:1057700048607047032219600CEBC2014860704713
:10578000042219600CEBC2014860704705221960C1
:105790000CEBC20148607047062219600CEBC20195
:1057A0004860704770B515460E460446FFF7B2FED6
:1057B00094F84400FF2804BF002084F8440094F8C3
:1057C0004500FF2804BF002084F84500FFF7C6FE0F
:1057D000A06B28B12046BDE87040FFF7BFBC00BFFA
:1057E00004F1240031462A4600F0F8F82046BDE8CE
:1057F0007040FFF7B3BC000070B588B340F2780585
:10580000C2F200050446686950B14FF0500080F3C1
:105810001188BFF36F8FBFF34F8F00BFFEE700BF4C
:10582000686901306861AE6928680430FFF7EAFDF5
:105830002868A419446005D3286A29680431FFF751
:105840001FFE08E0E86929680431FFF719FEE86ADD
:10585000844238BFEC6200F0EFFE002818BF70BD34
:105860004EF60450CEF200004FF080510160BFF3BD
:105870004F8FBFF36F8F70BD70B588B1D1B140F25B
:105880007804C2F200046269F2B14FF0500080F374
:105890001188BFF36F8FBFF34F8F00BFFEE700BFCC
:1058A0004FF0500080F31188BFF36F8FBFF34F8F1D
:1058B000FEE700BF4FF0500080F31188BFF36F8FF9
:1058C000BFF34F8FFEE700BF626901326261A269D8
:1058D00003689A42194403D2994203D316E000BFE9
:1058E000994201D3914211D90160A56920688E1AAD
:1058F0000430FFF787FD2068AD19456008D3206AA2
:1059000021680431FFF7BCFD0BE000BF016008E037
:10591000E06921680431FFF7B3FDE06A854238BFD2
:10592000E56200F089FE002818BF70BD4EF60450F5
:10593000CEF200004FF080510160BFF34F8FBFF3F4
:105940006F8F70BD40F27801C2F200018A6B026075
:10595000896941607047000040F27800C2F200009F
:10596000012101637047000070B5D8B140F278049E
:10597000C2F200040D4621681831FFF781FDA669C7
:1059800020680430FFF73EFD681C15D02068AD1973
:10599000456019D3206A21680431BDE87040FFF7E3
:1059A0006FBD00BF4FF0500080F31188BFF36F8FC1
:1059B000BFF34F8FFEE700BF54F8500B011D204688
:1059C000BDE87040FFF78EBDE06921680431FFF744
:1059D00057FDE06A854238BFE56270BDF0B581B021
:1059E000C0B140F27804C2F200040D4621681646A8
:1059F0001831FFF777FDA76920680430FFF702FD33
:105A000096B154F8500B011D204601B0BDE8F0409E
:105A1000FFF768BD4FF0500080F31188BFF36F8F20
:105A2000BFF34F8FFEE700BF2068ED19456007D335
:105A3000206A2168043101B0BDE8F040FFF720BDC5
:105A4000E06921680431FFF71BFDE06A854238BF39
:105A5000E56201B0F0BD000010B588B00020CDE9CE
:105A6000050006A805A904AAFFF7DEFC0598002892
:105A70003ED0069C002C45D05C21049A07910799E2
:105A80005C2949D107992063022084F8590007A8AE
:105A90000021CDE9001044F6B930C0F6000028A17D
:105AA00000230294FFF7CCF82046FEF73FFF07984B
:105AB00040F27804C2F20004A062B0B100F034FEFB
:105AC000411C33D0012810D14FF0500080F31188D1
:105AD000BFF36F8FBFF34F8F4FF0FF30E0620120B5
